:020000040000FA
:020000003528A1
:040002000034003492
:08000800052820000E08F40099
:10001000F41F0D28741F1128542872080438F200A8
:100020000A2872080838F20054282B28F00A03190D
:10003000F10A2B280130F002031CF1032B28F00AEF
:100040000319F10AF00A0319F10A2B280030F00213
:10005000031CF1032B28F20CF20C72080339F20096
:100060002700FF3019069905090021007830990012
:1000700023008E012100FF308E0020008E013C0005
:10008000143090002000C8308B002700C03097004B
:100090002700C03098000030F000F10020000E086A
:0800A0000339F2007008522838
:0201EE00720895
:1001F0000F39F30082308A005630730703188A0AD9
:0202000082007A
:0404AC0015281628D1
:1004B0001A281F281A28152826281628162826281C
:0C04C00015281A281F281A2816281528AD
:020000040001F9
:02000E00FC3FB5
:02001000FF3FB0
:020012009F3F0E
:00000001FF
